{
  "_format": "hh-sol-artifact-1",
  "contractName": "FlashSwap",
  "sourceName": "contracts/FlashSwap.sol",
  "abi": [
    {
      "inputs": [],
      "stateMutability": "nonpayable",
      "type": "constructor"
    },
    {
      "inputs": [
        {
          "internalType": "uint256",
          "name": "wethAmount",
          "type": "uint256"
        }
      ],
      "name": "flashSwap",
      "outputs": [],
      "stateMutability": "nonpayable",
      "type": "function"
    },
    {
      "inputs": [
        {
          "internalType": "address",
          "name": "sender",
          "type": "address"
        },
        {
          "internalType": "uint256",
          "name": "amount0",
          "type": "uint256"
        },
        {
          "internalType": "uint256",
          "name": "amount1",
          "type": "uint256"
        },
        {
          "internalType": "bytes",
          "name": "data",
          "type": "bytes"
        }
      ],
      "name": "uniswapV2Call",
      "outputs": [],
      "stateMutability": "nonpayable",
      "type": "function"
    }
  ],
  "bytecode": "0x60c060405273a478c2975ab1ea89e8196811f51a7b7ade33eb1173ffffffffffffffffffffffffffffffffffffffff1660809073ffffffffffffffffffffffffffffffffffffffff1681525034801561005757600080fd5b50737a250d5630b4cf539739df2c5dacb4c659f2488d73ffffffffffffffffffffffffffffffffffffffff1660a08173ffffffffffffffffffffffffffffffffffffffff168152505060805160a0516117f86100e0600039600081816102560152818161030901526103d701526000818160b3015281816105db015261072201526117f86000f3fe608060405234801561001057600080fd5b50600436106100365760003560e01c806310d1e85c1461003b578063c10d406214610057575b600080fd5b61005560048036038101906100509190610e3f565b610073565b005b610071600480360381019061006c9190610ec7565b6106a8565b005b6100b16040518060400160405280601a81526020017f466c617368537761703a3a756e6973776170563243616c6c28290000000000008152506107c0565b7f000000000000000000000000000000000000000000000000000000000000000073ffffffffffffffffffffffffffffffffffffffff163373ffffffffffffffffffffffffffffffffffffffff161461013f576040517f08c379a000000000000000000000000000000000000000000000000000000000815260040161013690610f51565b60405180910390fd5b3073ffffffffffffffffffffffffffffffffffffffff168573ffffffffffffffffffffffffffffffffffffffff16146101ad576040517f08c379a00000000000000000000000000000000000000000000000000000000081526004016101a490610fbd565b60405180910390fd5b60008083838101906101bf919061101b565b9150915073c02aaa39b223fe8d0a0e5c4f27ead9083c756cc273ffffffffffffffffffffffffffffffffffffffff168273ffffffffffffffffffffffffffffffffffffffff1614610245576040517f08c379a000000000000000000000000000000000000000000000000000000000815260040161023c906110a7565b60405180910390fd5b600061025086610859565b905060007f000000000000000000000000000000000000000000000000000000000000000073ffffffffffffffffffffffffffffffffffffffff166338ed173988600061029b61087d565b30426040518663ffffffff1660e01b81526004016102bd9594939291906111e8565b6000604051808303816000875af11580156102dc573d6000803e3d6000fd5b505050506040513d6000823e3d601f19601f8201168201806040525081019061030591906113a6565b90507f000000000000000000000000000000000000000000000000000000000000000073ffffffffffffffffffffffffffffffffffffffff166338ed173982600181518110610357576103566113ef565b5b6020026020010151600061036961099a565b30426040518663ffffffff1660e01b815260040161038b9594939291906111e8565b6000604051808303816000875af11580156103aa573d6000803e3d6000fd5b505050506040513d6000823e3d601f19601f820116820180604052508101906103d391906113a6565b90507f000000000000000000000000000000000000000000000000000000000000000073ffffffffffffffffffffffffffffffffffffffff166338ed173982600181518110610425576104246113ef565b5b60200260200101516000610437610ab7565b30426040518663ffffffff1660e01b81526004016104599594939291906111e8565b6000604051808303816000875af1158015610478573d6000803e3d6000fd5b505050506040513d6000823e3d601f19601f820116820180604052508101906104a191906113a6565b9050600082826001815181106104ba576104b96113ef565b5b60200260200101516104cc919061144d565b905061050d6040518060400160405280600a81526020017f70726f6669743a2025730000000000000000000000000000000000000000000081525082610bd4565b60008111156106615773c02aaa39b223fe8d0a0e5c4f27ead9083c756cc273ffffffffffffffffffffffffffffffffffffffff1663a9059cbb85836040518363ffffffff1660e01b8152600401610565929190611481565b6020604051808303816000875af1158015610584573d6000803e3d6000fd5b505050506040513d601f19601f820116820180604052508101906105a891906114e2565b5073c02aaa39b223fe8d0a0e5c4f27ead9083c756cc273ffffffffffffffffffffffffffffffffffffffff1663a9059cbb7f0000000000000000000000000000000000000000000000000000000000000000856040518363ffffffff1660e01b8152600401610618929190611481565b6020604051808303816000875af1158015610637573d6000803e3d6000fd5b505050506040513d601f19601f8201168201806040525081019061065b91906114e2565b5061069c565b6040517f08c379a00000000000000000000000000000000000000000000000000000000081526004016106939061155b565b60405180910390fd5b50505050505050505050565b6106e66040518060400160405280601681526020017f466c617368537761703a3a666c617368537761702829000000000000000000008152506107c0565b600073c02aaa39b223fe8d0a0e5c4f27ead9083c756cc23360405160200161070f92919061157b565b60405160208183030381529060405290507f000000000000000000000000000000000000000000000000000000000000000073ffffffffffffffffffffffffffffffffffffffff1663022c0d9f83600030856040518563ffffffff1660e01b81526004016107809493929190611623565b600060405180830381600087803b15801561079a57600080fd5b505af11580156107ae573d6000803e3d6000fd5b505050506107bc6001610c70565b5050565b610856816040516024016107d491906116b3565b6040516020818303038152906040527f41304fac000000000000000000000000000000000000000000000000000000007bffffffffffffffffffffffffffffffffffffffffffffffffffffffff19166020820180517bffffffffffffffffffffffffffffffffffffffffffffffffffffffff8381831617835250505050610d09565b50565b60006103e86103e58361086c91906116d5565b6108769190611746565b9050919050565b60606000600267ffffffffffffffff81111561089c5761089b611253565b5b6040519080825280602002602001820160405280156108ca5781602001602082028036833780820191505090505b50905073c02aaa39b223fe8d0a0e5c4f27ead9083c756cc2816000815181106108f6576108f56113ef565b5b602002602001019073ffffffffffffffffffffffffffffffffffffffff16908173ffffffffffffffffffffffffffffffffffffffff168152505073514910771af9ca656af840dff83e8264ecf986ca81600181518110610959576109586113ef565b5b602002602001019073ffffffffffffffffffffffffffffffffffffffff16908173ffffffffffffffffffffffffffffffffffffffff16815250508091505090565b60606000600267ffffffffffffffff8111156109b9576109b8611253565b5b6040519080825280602002602001820160405280156109e75781602001602082028036833780820191505090505b50905073514910771af9ca656af840dff83e8264ecf986ca81600081518110610a1357610a126113ef565b5b602002602001019073ffffffffffffffffffffffffffffffffffffffff16908173ffffffffffffffffffffffffffffffffffffffff1681525050736b175474e89094c44da98b954eedeac495271d0f81600181518110610a7657610a756113ef565b5b602002602001019073ffffffffffffffffffffffffffffffffffffffff16908173ffffffffffffffffffffffffffffffffffffffff16815250508091505090565b60606000600267ffffffffffffffff811115610ad657610ad5611253565b5b604051908082528060200260200182016040528015610b045781602001602082028036833780820191505090505b509050736b175474e89094c44da98b954eedeac495271d0f81600081518110610b3057610b2f6113ef565b5b602002602001019073ffffffffffffffffffffffffffffffffffffffff16908173ffffffffffffffffffffffffffffffffffffffff168152505073c02aaa39b223fe8d0a0e5c4f27ead9083c756cc281600181518110610b9357610b926113ef565b5b602002602001019073ffffffffffffffffffffffffffffffffffffffff16908173ffffffffffffffffffffffffffffffffffffffff16815250508091505090565b610c6c8282604051602401610bea929190611777565b6040516020818303038152906040527fb60e72cc000000000000000000000000000000000000000000000000000000007bffffffffffffffffffffffffffffffffffffffffffffffffffffffff19166020820180517bffffffffffffffffffffffffffffffffffffffffffffffffffffffff8381831617835250505050610d09565b5050565b610d0681604051602401610c8491906117a7565b6040516020818303038152906040527ff82c50f1000000000000000000000000000000000000000000000000000000007bffffffffffffffffffffffffffffffffffffffffffffffffffffffff19166020820180517bffffffffffffffffffffffffffffffffffffffffffffffffffffffff8381831617835250505050610d09565b50565b60008151905060006a636f6e736f6c652e6c6f679050602083016000808483855afa5050505050565b6000604051905090565b600080fd5b600080fd5b600073ffffffffffffffffffffffffffffffffffffffff82169050919050565b6000610d7182610d46565b9050919050565b610d8181610d66565b8114610d8c57600080fd5b50565b600081359050610d9e81610d78565b92915050565b6000819050919050565b610db781610da4565b8114610dc257600080fd5b50565b600081359050610dd481610dae565b92915050565b600080fd5b600080fd5b600080fd5b60008083601f840112610dff57610dfe610dda565b5b8235905067ffffffffffffffff811115610e1c57610e1b610ddf565b5b602083019150836001820283011115610e3857610e37610de4565b5b9250929050565b600080600080600060808688031215610e5b57610e5a610d3c565b5b6000610e6988828901610d8f565b9550506020610e7a88828901610dc5565b9450506040610e8b88828901610dc5565b935050606086013567ffffffffffffffff811115610eac57610eab610d41565b5b610eb888828901610de9565b92509250509295509295909350565b600060208284031215610edd57610edc610d3c565b5b6000610eeb84828501610dc5565b91505092915050565b600082825260208201905092915050565b7f6e6f742070616972000000000000000000000000000000000000000000000000600082015250565b6000610f3b600883610ef4565b9150610f4682610f05565b602082019050919050565b60006020820190508181036000830152610f6a81610f2e565b9050919050565b7f6e6f742073656e64657200000000000000000000000000000000000000000000600082015250565b6000610fa7600a83610ef4565b9150610fb282610f71565b602082019050919050565b60006020820190508181036000830152610fd681610f9a565b9050919050565b6000610fe882610d46565b9050919050565b610ff881610fdd565b811461100357600080fd5b50565b60008135905061101581610fef565b92915050565b6000806040838503121561103257611031610d3c565b5b600061104085828601611006565b925050602061105185828601611006565b9150509250929050565b7f746f6b656e20626f72726f7720213d2057455448000000000000000000000000600082015250565b6000611091601483610ef4565b915061109c8261105b565b602082019050919050565b600060208201905081810360008301526110c081611084565b9050919050565b6110d081610da4565b82525050565b6000819050919050565b6000819050919050565b60006111056111006110fb846110d6565b6110e0565b610da4565b9050919050565b611115816110ea565b82525050565b600081519050919050565b600082825260208201905092915050565b6000819050602082019050919050565b61115081610d66565b82525050565b60006111628383611147565b60208301905092915050565b6000602082019050919050565b60006111868261111b565b6111908185611126565b935061119b83611137565b8060005b838110156111cc5781516111b38882611156565b97506111be8361116e565b92505060018101905061119f565b5085935050505092915050565b6111e281610d66565b82525050565b600060a0820190506111fd60008301886110c7565b61120a602083018761110c565b818103604083015261121c818661117b565b905061122b60608301856111d9565b61123860808301846110c7565b9695505050505050565b6000601f19601f8301169050919050565b7f4e487b7100000000000000000000000000000000000000000000000000000000600052604160045260246000fd5b61128b82611242565b810181811067ffffffffffffffff821117156112aa576112a9611253565b5b80604052505050565b60006112bd610d32565b90506112c98282611282565b919050565b600067ffffffffffffffff8211156112e9576112e8611253565b5b602082029050602081019050919050565b60008151905061130981610dae565b92915050565b600061132261131d846112ce565b6112b3565b9050808382526020820190506020840283018581111561134557611344610de4565b5b835b8181101561136e578061135a88826112fa565b845260208401935050602081019050611347565b5050509392505050565b600082601f83011261138d5761138c610dda565b5b815161139d84826020860161130f565b91505092915050565b6000602082840312156113bc576113bb610d3c565b5b600082015167ffffffffffffffff8111156113da576113d9610d41565b5b6113e684828501611378565b91505092915050565b7f4e487b7100000000000000000000000000000000000000000000000000000000600052603260045260246000fd5b7f4e487b7100000000000000000000000000000000000000000000000000000000600052601160045260246000fd5b600061145882610da4565b915061146383610da4565b925082820390508181111561147b5761147a61141e565b5b92915050565b600060408201905061149660008301856111d9565b6114a360208301846110c7565b9392505050565b60008115159050919050565b6114bf816114aa565b81146114ca57600080fd5b50565b6000815190506114dc816114b6565b92915050565b6000602082840312156114f8576114f7610d3c565b5b6000611506848285016114cd565b91505092915050565b7f6e6f2070726f6669740000000000000000000000000000000000000000000000600082015250565b6000611545600983610ef4565b91506115508261150f565b602082019050919050565b6000602082019050818103600083015261157481611538565b9050919050565b600060408201905061159060008301856111d9565b61159d60208301846111d9565b9392505050565b600081519050919050565b600082825260208201905092915050565b60005b838110156115de5780820151818401526020810190506115c3565b60008484015250505050565b60006115f5826115a4565b6115ff81856115af565b935061160f8185602086016115c0565b61161881611242565b840191505092915050565b600060808201905061163860008301876110c7565b611645602083018661110c565b61165260408301856111d9565b818103606083015261166481846115ea565b905095945050505050565b600081519050919050565b60006116858261166f565b61168f8185610ef4565b935061169f8185602086016115c0565b6116a881611242565b840191505092915050565b600060208201905081810360008301526116cd818461167a565b905092915050565b60006116e082610da4565b91506116eb83610da4565b92508282026116f981610da4565b915082820484148315176117105761170f61141e565b5b5092915050565b7f4e487b7100000000000000000000000000000000000000000000000000000000600052601260045260246000fd5b600061175182610da4565b915061175c83610da4565b92508261176c5761176b611717565b5b828204905092915050565b60006040820190508181036000830152611791818561167a565b90506117a060208301846110c7565b9392505050565b60006020820190506117bc60008301846110c7565b9291505056fea264697066735822122081aa22c3822b7d8eaca913f9ebc10f09fd2946a6cbd57ba97f6172deb9d96a4064736f6c63430008110033",
  "linkReferences": {},
  "deployedLinkReferences": {}
}